{
  "contractName": "Tracetex",
  "abi": [
    {
      "constant": true,
      "inputs": [],
      "name": "pcount",
      "outputs": [
        {
          "name": "",
          "type": "uint256"
        }
      ],
      "payable": false,
      "stateMutability": "view",
      "type": "function"
    },
    {
      "constant": true,
      "inputs": [],
      "name": "ocount",
      "outputs": [
        {
          "name": "",
          "type": "uint256"
        }
      ],
      "payable": false,
      "stateMutability": "view",
      "type": "function"
    },
    {
      "constant": true,
      "inputs": [
        {
          "name": "",
          "type": "uint256"
        }
      ],
      "name": "products",
      "outputs": [
        {
          "name": "code",
          "type": "string"
        },
        {
          "name": "name",
          "type": "string"
        },
        {
          "name": "description",
          "type": "string"
        },
        {
          "name": "manufactuerName",
          "type": "string"
        },
        {
          "name": "price",
          "type": "uint256"
        }
      ],
      "payable": false,
      "stateMutability": "view",
      "type": "function"
    },
    {
      "constant": true,
      "inputs": [
        {
          "name": "",
          "type": "uint256"
        }
      ],
      "name": "retailers",
      "outputs": [
        {
          "name": "code",
          "type": "string"
        },
        {
          "name": "name",
          "type": "string"
        },
        {
          "name": "email",
          "type": "string"
        },
        {
          "name": "location",
          "type": "string"
        },
        {
          "name": "password",
          "type": "string"
        }
      ],
      "payable": false,
      "stateMutability": "view",
      "type": "function"
    },
    {
      "constant": true,
      "inputs": [],
      "name": "rcount",
      "outputs": [
        {
          "name": "",
          "type": "uint256"
        }
      ],
      "payable": false,
      "stateMutability": "view",
      "type": "function"
    },
    {
      "constant": true,
      "inputs": [
        {
          "name": "",
          "type": "uint256"
        }
      ],
      "name": "orders",
      "outputs": [
        {
          "name": "pcode",
          "type": "string"
        },
        {
          "name": "rcode",
          "type": "string"
        },
        {
          "name": "ocode",
          "type": "string"
        },
        {
          "name": "ucode",
          "type": "string"
        }
      ],
      "payable": false,
      "stateMutability": "view",
      "type": "function"
    },
    {
      "constant": false,
      "inputs": [
        {
          "name": "_code",
          "type": "string"
        },
        {
          "name": "_name",
          "type": "string"
        },
        {
          "name": "_description",
          "type": "string"
        },
        {
          "name": "_manufactuerName",
          "type": "string"
        },
        {
          "name": "_price",
          "type": "uint256"
        }
      ],
      "name": "addProduct",
      "outputs": [
        {
          "name": "",
          "type": "uint256"
        }
      ],
      "payable": true,
      "stateMutability": "payable",
      "type": "function"
    },
    {
      "constant": false,
      "inputs": [
        {
          "name": "_code",
          "type": "string"
        },
        {
          "name": "_name",
          "type": "string"
        },
        {
          "name": "_email",
          "type": "string"
        },
        {
          "name": "_location",
          "type": "string"
        },
        {
          "name": "_password",
          "type": "string"
        }
      ],
      "name": "addRetailer",
      "outputs": [
        {
          "name": "",
          "type": "uint256"
        }
      ],
      "payable": true,
      "stateMutability": "payable",
      "type": "function"
    },
    {
      "constant": false,
      "inputs": [
        {
          "name": "_pcode",
          "type": "string"
        },
        {
          "name": "_rcode",
          "type": "string"
        },
        {
          "name": "_rname",
          "type": "string"
        },
        {
          "name": "_rpassword",
          "type": "string"
        },
        {
          "name": "_ocode",
          "type": "string"
        },
        {
          "name": "_ucode",
          "type": "string"
        }
      ],
      "name": "addOrder",
      "outputs": [
        {
          "name": "",
          "type": "uint256"
        }
      ],
      "payable": true,
      "stateMutability": "payable",
      "type": "function"
    },
    {
      "constant": true,
      "inputs": [
        {
          "name": "_pcode",
          "type": "string"
        },
        {
          "name": "_rcode",
          "type": "string"
        },
        {
          "name": "_rname",
          "type": "string"
        },
        {
          "name": "_rpassword",
          "type": "string"
        },
        {
          "name": "_ocode",
          "type": "string"
        },
        {
          "name": "_ucode",
          "type": "string"
        }
      ],
      "name": "verifyOrder",
      "outputs": [
        {
          "name": "",
          "type": "uint256"
        }
      ],
      "payable": false,
      "stateMutability": "view",
      "type": "function"
    }
  ],
  "bytecode": "0x6060604052341561000f57600080fd5b611dc48061001e6000396000f3006060604052600436106100a4576000357c0100000000000000000000000000000000000000000000000000000000900463ffffffff1680631ab2cf21146100a95780631dca0ee8146100d257806325dfbfba146100fb5780633b20a71d14610126578063619cce0f1461015c5780637acc0b2014610187578063897ec7df146101c15780639d128119146101fb578063a85c38ef14610224578063bc6aed5b1461025d575b600080fd5b34156100b457600080fd5b6100bc610288565b6040516100c99190611ca4565b60405180910390f35b34156100dd57600080fd5b6100e561028e565b6040516100f29190611ca4565b60405180910390f35b610110600461010b903690611a19565b610294565b60405161011d9190611ca4565b60405180910390f35b341561013157600080fd5b6101466004610141903690611900565b61038d565b6040516101539190611ca4565b60405180910390f35b610171600461016c903690611811565b61070d565b60405161017e9190611ca4565b60405180910390f35b341561019257600080fd5b6101a760046101a2903690611af0565b610818565b6040516101b8959493929190611c35565b60405180910390f35b34156101cc57600080fd5b6101e160046101dc903690611af0565b610abd565b6040516101f2959493929190611bbf565b60405180910390f35b341561020657600080fd5b61020e610dfa565b60405161021b9190611ca4565b60405180910390f35b341561022f57600080fd5b610244600461023f903690611af0565b610e00565b6040516102549493929190611b5e565b60405180910390f35b610272600461026d903690611900565b61109f565b60405161027f9190611ca4565b60405180910390f35b60015481565b60035481565b600061029e611617565b600160008154809291906001019190505550868160000181905250858160200181905250848160400181905250838160600181905250828160800181815250508060046001548154811015156102f057fe5b9060005260206000209060050201600082015181600001908051906020019061031a92919061165f565b50602082015181600101908051906020019061033792919061165f565b50604082015181600201908051906020019061035492919061165f565b50606082015181600301908051906020019061037192919061165f565b5060808201518160040155905050600191505095945050505050565b600080610399886111b0565b80156103ac57506103ab8787876112ad565b5b156106fd57600090505b6006805490508110156106fc576104856006828154811015156103d557fe5b90600052602060002090600402016002018054600181600116156101000203166002900480601f01602080910402602001604051908101604052809291908181526020018280546001816001161561010002031660029004801561047a5780601f1061044f5761010080835404028352916020019161047a565b820191906000526020600020905b81548152906001019060200180831161045d57829003601f168201915b50505050508561153e565b156106ef5761054c60068281548110151561049c57fe5b90600052602060002090600402016000018054600181600116156101000203166002900480601f0160208091040260200160405190810160405280929190818152602001828054600181600116156101000203166002900480156105415780601f1061051657610100808354040283529160200191610541565b820191906000526020600020905b81548152906001019060200180831161052457829003601f168201915b50505050508961153e565b8015610616575061061560068281548110151561056557fe5b90600052602060002090600402016003018054600181600116156101000203166002900480601f01602080910402602001604051908101604052809291908181526020018280546001816001161561010002031660029004801561060a5780601f106105df5761010080835404028352916020019161060a565b820191906000526020600020905b8154815290600101906020018083116105ed57829003601f168201915b50505050508461153e565b5b80156106e057506106df60068281548110151561062f57fe5b90600052602060002090600402016001018054600181600116156101000203166002900480601f0160208091040260200160405190810160405280929190818152602001828054600181600116156101000203166002900480156106d45780601f106106a9576101008083540402835291602001916106d4565b820191906000526020600020905b8154815290600101906020018083116106b757829003601f168201915b50505050508861153e565b5b156106ee5760019150610702565b5b80806001019150506103b6565b5b600091505b509695505050505050565b60006107176116df565b60026000815480929190600101919050555086816000018190525085816020018190525084816040018190525083816060018190525082816080018190525080600560025481548110151561076857fe5b9060005260206000209060050201600082015181600001908051906020019061079292919061165f565b5060208201518160010190805190602001906107af92919061165f565b5060408201518160020190805190602001906107cc92919061165f565b5060608201518160030190805190602001906107e992919061165f565b50608082015181600401908051906020019061080692919061165f565b50905050600191505095945050505050565b60048181548110151561082757fe5b9060005260206000209060050201600091509050806000018054600181600116156101000203166002900480601f0160208091040260200160405190810160405280929190818152602001828054600181600116156101000203166002900480156108d35780601f106108a8576101008083540402835291602001916108d3565b820191906000526020600020905b8154815290600101906020018083116108b657829003601f168201915b505050505090806001018054600181600116156101000203166002900480601f0160208091040260200160405190810160405280929190818152602001828054600181600116156101000203166002900480156109715780601f1061094657610100808354040283529160200191610971565b820191906000526020600020905b81548152906001019060200180831161095457829003601f168201915b505050505090806002018054600181600116156101000203166002900480601f016020809104026020016040519081016040528092919081815260200182805460018160011615610100020316600290048015610a0f5780601f106109e457610100808354040283529160200191610a0f565b820191906000526020600020905b8154815290600101906020018083116109f257829003601f168201915b505050505090806003018054600181600116156101000203166002900480601f016020809104026020016040519081016040528092919081815260200182805460018160011615610100020316600290048015610aad5780601f10610a8257610100808354040283529160200191610aad565b820191906000526020600020905b815481529060010190602001808311610a9057829003601f168201915b5050505050908060040154905085565b600581815481101515610acc57fe5b9060005260206000209060050201600091509050806000018054600181600116156101000203166002900480601f016020809104026020016040519081016040528092919081815260200182805460018160011615610100020316600290048015610b785780601f10610b4d57610100808354040283529160200191610b78565b820191906000526020600020905b815481529060010190602001808311610b5b57829003601f168201915b505050505090806001018054600181600116156101000203166002900480601f016020809104026020016040519081016040528092919081815260200182805460018160011615610100020316600290048015610c165780601f10610beb57610100808354040283529160200191610c16565b820191906000526020600020905b815481529060010190602001808311610bf957829003601f168201915b505050505090806002018054600181600116156101000203166002900480601f016020809104026020016040519081016040528092919081815260200182805460018160011615610100020316600290048015610cb45780601f10610c8957610100808354040283529160200191610cb4565b820191906000526020600020905b815481529060010190602001808311610c9757829003601f168201915b505050505090806003018054600181600116156101000203166002900480601f016020809104026020016040519081016040528092919081815260200182805460018160011615610100020316600290048015610d525780601f10610d2757610100808354040283529160200191610d52565b820191906000526020600020905b815481529060010190602001808311610d3557829003601f168201915b505050505090806004018054600181600116156101000203166002900480601f016020809104026020016040519081016040528092919081815260200182805460018160011615610100020316600290048015610df05780601f10610dc557610100808354040283529160200191610df0565b820191906000526020600020905b815481529060010190602001808311610dd357829003601f168201915b5050505050905085565b60025481565b600681815481101515610e0f57fe5b9060005260206000209060040201600091509050806000018054600181600116156101000203166002900480601f016020809104026020016040519081016040528092919081815260200182805460018160011615610100020316600290048015610ebb5780601f10610e9057610100808354040283529160200191610ebb565b820191906000526020600020905b815481529060010190602001808311610e9e57829003601f168201915b505050505090806001018054600181600116156101000203166002900480601f016020809104026020016040519081016040528092919081815260200182805460018160011615610100020316600290048015610f595780601f10610f2e57610100808354040283529160200191610f59565b820191906000526020600020905b815481529060010190602001808311610f3c57829003601f168201915b505050505090806002018054600181600116156101000203166002900480601f016020809104026020016040519081016040528092919081815260200182805460018160011615610100020316600290048015610ff75780601f10610fcc57610100808354040283529160200191610ff7565b820191906000526020600020905b815481529060010190602001808311610fda57829003601f168201915b505050505090806003018054600181600116156101000203166002900480601f0160208091040260200160405190810160405280929190818152602001828054600181600116156101000203166002900480156110955780601f1061106a57610100808354040283529160200191611095565b820191906000526020600020905b81548152906001019060200180831161107857829003601f168201915b5050505050905084565b60006110a961172d565b6110b2886111b0565b80156110c557506110c48787876112ad565b5b156111a05760036000815480929190600101919050555087816000018190525086816020018190525083816040018190525082816060018190525080600660035481548110151561111257fe5b9060005260206000209060040201600082015181600001908051906020019061113c92919061165f565b50602082015181600101908051906020019061115992919061165f565b50604082015181600201908051906020019061117692919061165f565b50606082015181600301908051906020019061119392919061165f565b50905050600191506111a5565b600091505b509695505050505050565b600080600090505b6004805490508110156112a2576112876004828154811015156111d757fe5b90600052602060002090600502016000018054600181600116156101000203166002900480601f01602080910402602001604051908101604052809291908181526020018280546001816001161561010002031660029004801561127c5780601f106112515761010080835404028352916020019161127c565b820191906000526020600020905b81548152906001019060200180831161125f57829003601f168201915b50505050508461153e565b1561129557600191506112a7565b80806001019150506111b8565b600091505b50919050565b600080600090505b600580549050811015611531576113846005828154811015156112d457fe5b90600052602060002090600502016000018054600181600116156101000203166002900480601f0160208091040260200160405190810160405280929190818152602001828054600181600116156101000203166002900480156113795780601f1061134e57610100808354040283529160200191611379565b820191906000526020600020905b81548152906001019060200180831161135c57829003601f168201915b50505050508661153e565b156115245761144b60058281548110151561139b57fe5b90600052602060002090600502016004018054600181600116156101000203166002900480601f0160208091040260200160405190810160405280929190818152602001828054600181600116156101000203166002900480156114405780601f1061141557610100808354040283529160200191611440565b820191906000526020600020905b81548152906001019060200180831161142357829003601f168201915b50505050508461153e565b8015611515575061151460058281548110151561146457fe5b90600052602060002090600502016001018054600181600116156101000203166002900480601f0160208091040260200160405190810160405280929190818152602001828054600181600116156101000203166002900480156115095780601f106114de57610100808354040283529160200191611509565b820191906000526020600020905b8154815290600101906020018083116114ec57829003601f168201915b50505050508561153e565b5b156115235760019150611536565b5b80806001019150506112b5565b600091505b509392505050565b6000816040518082805190602001908083835b6020831015156115765780518252602082019150602081019050602083039250611551565b6001836020036101000a038019825116818451168082178552505050505050905001915050604051809103902060001916836040518082805190602001908083835b6020831015156115dd57805182526020820191506020810190506020830392506115b8565b6001836020036101000a03801982511681845116808217855250505050505090500191505060405180910390206000191614905092915050565b60a06040519081016040528061162b61176e565b815260200161163861176e565b815260200161164561176e565b815260200161165261176e565b8152602001600081525090565b828054600181600116156101000203166002900490600052602060002090601f016020900481019282601f106116a057805160ff19168380011785556116ce565b828001600101855582156116ce579182015b828111156116cd5782518255916020019190600101906116b2565b5b5090506116db9190611782565b5090565b60a0604051908101604052806116f361176e565b815260200161170061176e565b815260200161170d61176e565b815260200161171a61176e565b815260200161172761176e565b81525090565b60806040519081016040528061174161176e565b815260200161174e61176e565b815260200161175b61176e565b815260200161176861176e565b81525090565b602060405190810160405280600081525090565b6117a491905b808211156117a0576000816000905550600101611788565b5090565b90565b600082601f83011215156117ba57600080fd5b81356117cd6117c882611cec565b611cbf565b915080825260208301602083018583830111156117e957600080fd5b6117f4838284611d37565b50505092915050565b60006118098235611d2d565b905092915050565b600080600080600060a0868803121561182957600080fd5b600086013567ffffffffffffffff81111561184357600080fd5b61184f888289016117a7565b955050602086013567ffffffffffffffff81111561186c57600080fd5b611878888289016117a7565b945050604086013567ffffffffffffffff81111561189557600080fd5b6118a1888289016117a7565b935050606086013567ffffffffffffffff8111156118be57600080fd5b6118ca888289016117a7565b925050608086013567ffffffffffffffff8111156118e757600080fd5b6118f3888289016117a7565b9150509295509295909350565b60008060008060008060c0878903121561191957600080fd5b600087013567ffffffffffffffff81111561193357600080fd5b61193f89828a016117a7565b965050602087013567ffffffffffffffff81111561195c57600080fd5b61196889828a016117a7565b955050604087013567ffffffffffffffff81111561198557600080fd5b61199189828a016117a7565b945050606087013567ffffffffffffffff8111156119ae57600080fd5b6119ba89828a016117a7565b935050608087013567ffffffffffffffff8111156119d757600080fd5b6119e389828a016117a7565b92505060a087013567ffffffffffffffff811115611a0057600080fd5b611a0c89828a016117a7565b9150509295509295509295565b600080600080600060a08688031215611a3157600080fd5b600086013567ffffffffffffffff811115611a4b57600080fd5b611a57888289016117a7565b955050602086013567ffffffffffffffff811115611a7457600080fd5b611a80888289016117a7565b945050604086013567ffffffffffffffff811115611a9d57600080fd5b611aa9888289016117a7565b935050606086013567ffffffffffffffff811115611ac657600080fd5b611ad2888289016117a7565b9250506080611ae3888289016117fd565b9150509295509295909350565b600060208284031215611b0257600080fd5b6000611b10848285016117fd565b91505092915050565b6000611b2482611d18565b808452611b38816020860160208601611d46565b611b4181611d79565b602085010191505092915050565b611b5881611d23565b82525050565b60006080820190508181036000830152611b788187611b19565b90508181036020830152611b8c8186611b19565b90508181036040830152611ba08185611b19565b90508181036060830152611bb48184611b19565b905095945050505050565b600060a0820190508181036000830152611bd98188611b19565b90508181036020830152611bed8187611b19565b90508181036040830152611c018186611b19565b90508181036060830152611c158185611b19565b90508181036080830152611c298184611b19565b90509695505050505050565b600060a0820190508181036000830152611c4f8188611b19565b90508181036020830152611c638187611b19565b90508181036040830152611c778186611b19565b90508181036060830152611c8b8185611b19565b9050611c9a6080830184611b4f565b9695505050505050565b6000602082019050611cb96000830184611b4f565b92915050565b6000604051905081810181811067ffffffffffffffff82111715611ce257600080fd5b8060405250919050565b600067ffffffffffffffff821115611d0357600080fd5b601f19601f8301169050602081019050919050565b600081519050919050565b6000819050919050565b6000819050919050565b82818337600083830152505050565b60005b83811015611d64578082015181840152602081019050611d49565b83811115611d73576000848401525b50505050565b6000601f19601f83011690509190505600a265627a7a72305820f8f3393a3aef33090b6c6582dcd7970ba382a2367fcc3df79a8386776d03d2ac6c6578706572696d656e74616cf50037",
  "source": "pragma solidity ^0.4.21;\npragma experimental ABIEncoderV2;\n\n\n\ncontract Tracetex {\n    address owner;\n    uint public pcount;\n    uint public rcount;\n    uint public ocount;\n\n        // A struct which helps create a new product\n        struct productObj {\n        string code;\n        string name;\n        string description;\n        string manufactuerName;\n        uint price;\n    }\n        // A struct which helps create a new retailer\n    struct retailersObj {\n        string code;\n        string name;\n        string email;\n        string location;\n        string password;\n    }\n\n    // A struct which helps create a new customer\n    struct orderObj {\n        string pcode;\n        string rcode;\n        string ocode;\n        string ucode;\n    }\n\n    struct retailerObj {\n        string name;\n        string location;\n    }\n\n    productObj [] public  products;\n    retailersObj [] public  retailers;\n    orderObj [] public  orders;\n\n\n\n\n    // Function to create a new code for the product\n    function addProduct(string _code, string _name, string _description, string _manufactuerName, uint _price) public payable returns (uint) {\n        productObj memory newProd;\n        pcount++;\n        newProd.code = _code;\n        newProd.name = _name;\n        newProd.description = _description;\n        newProd.manufactuerName = _manufactuerName;\n        newProd.price =_price;\n        products[pcount]= newProd;\n        return 1;\n    }\n\n        // Function to create a new code for the product\n    function addRetailer(string _code, string _name, string _email, string _location, string _password) public payable returns (uint) {\n        retailersObj memory newRet;\n        rcount++;\n        newRet.code = _code;\n        newRet.name = _name;\n        newRet.email = _email;\n        newRet.location = _location;\n        newRet.password =_password;\n        retailers[rcount]= newRet;\n        return 1;\n    }\n\n    function checkProduct(string _code) internal returns (bool) {\n\n        // Iterate over the products array\n        for (uint i = 0; i < products.length; i++) {\n            if (compareStrings(products[i].code,_code)){\n                return true;\n            }\n        }\n            return false;\n    }\n\n    function checkRetailer(string _code,string _name,string _password) internal returns (bool) {\n\n        // Iterate over the retailers array\n        for (uint i = 0; i < retailers.length; i++) {\n            if (compareStrings(retailers[i].code,_code)){\n                        if (compareStrings(retailers[i].password,_password) && compareStrings(retailers[i].name,_name)){\n                        return true;\n                        }\n            }\n        }\n            return false;\n    }\n\n    function addOrder(string _pcode, string _rcode,string _rname, string _rpassword, string _ocode, string _ucode) public payable returns (uint) {\n       \n       if(checkProduct(_pcode) && checkRetailer(_rcode,_rname,_rpassword)){\n        orderObj memory newOrd;\n        ocount++;\n        newOrd.pcode = _pcode;\n        newOrd.rcode = _rcode;\n        newOrd.ocode = _ocode;\n        newOrd.ucode = _ucode;\n        orders[ocount]= newOrd;\n        return 1;\n      }\n       return 0;\n    }\n\n    function verifyOrder(string _pcode, string _rcode,string _rname, string _rpassword, string _ocode, string _ucode) public view returns (uint) {\n\n       if(checkProduct(_pcode) && checkRetailer(_rcode,_rname,_rpassword)){\n        for (uint i = 0; i < orders.length; i++) {\n            if (compareStrings(orders[i].ocode,_ocode)){\n                        if (compareStrings(orders[i].pcode,_pcode) && compareStrings(orders[i].ucode,_ucode)&& compareStrings(orders[i].rcode,_rcode)){\n                        return 1;\n                        }\n            }\n        }\n      }\n       return 0;\n    }\n\n\n    // Cannot directly compare strings in Solidity\n    // This function hashes the 2 strings and then compares the 2 hashes\n    function compareStrings(string a, string b) internal returns (bool) {\n    \treturn keccak256(a) == keccak256(b);\n    }\n\n    // Function to delete an element from an array\n    function remove(uint index, string[] storage array) internal returns(bool) {\n        if (index >= array.length)\n            return false;\n\n        for (uint i = index; i < array.length-1; i++) {\n            array[i] = array[i+1];\n        }\n        delete array[array.length-1];\n        array.length--;\n        return true;\n    }\n\n    // Function to convert string to bytes32\n    function stringToBytes32(string memory source) internal returns (bytes32 result) {\n        bytes memory tempEmptyStringTest = bytes(source);\n        if (tempEmptyStringTest.length == 0) {\n            return 0x0;\n        }\n        assembly {\n            result := mload(add(source, 32))\n        }\n    }\n}\n",
  "sourcePath": "C:\\Users\\tharu\\Documents\\Tracetex\\contracts\\Tracetex.sol",
  "compiler": {
    "name": "solc",
    "version": "0.4.21+commit.dfe3193c.Emscripten.clang"
  },
  "schemaVersion": "3.4.16",
  "updatedAt": "2023-11-30T22:56:10.309Z",
  "networkType": "ethereum",
  "devdoc": {
    "methods": {}
  },
  "userdoc": {
    "methods": {}
  }
}