{
  "contractName": "Tracetex",
  "abi": [
    {
      "constant": true,
      "inputs": [],
      "name": "pcount",
      "outputs": [
        {
          "name": "",
          "type": "uint256"
        }
      ],
      "payable": false,
      "stateMutability": "view",
      "type": "function"
    },
    {
      "constant": true,
      "inputs": [],
      "name": "ocount",
      "outputs": [
        {
          "name": "",
          "type": "uint256"
        }
      ],
      "payable": false,
      "stateMutability": "view",
      "type": "function"
    },
    {
      "constant": true,
      "inputs": [
        {
          "name": "",
          "type": "uint256"
        }
      ],
      "name": "products",
      "outputs": [
        {
          "name": "code",
          "type": "string"
        },
        {
          "name": "name",
          "type": "string"
        },
        {
          "name": "description",
          "type": "string"
        },
        {
          "name": "manufactuerName",
          "type": "string"
        },
        {
          "name": "price",
          "type": "uint256"
        }
      ],
      "payable": false,
      "stateMutability": "view",
      "type": "function"
    },
    {
      "constant": true,
      "inputs": [
        {
          "name": "",
          "type": "uint256"
        }
      ],
      "name": "retailers",
      "outputs": [
        {
          "name": "code",
          "type": "string"
        },
        {
          "name": "name",
          "type": "string"
        },
        {
          "name": "email",
          "type": "string"
        },
        {
          "name": "location",
          "type": "string"
        },
        {
          "name": "password",
          "type": "string"
        }
      ],
      "payable": false,
      "stateMutability": "view",
      "type": "function"
    },
    {
      "constant": true,
      "inputs": [],
      "name": "rcount",
      "outputs": [
        {
          "name": "",
          "type": "uint256"
        }
      ],
      "payable": false,
      "stateMutability": "view",
      "type": "function"
    },
    {
      "constant": true,
      "inputs": [
        {
          "name": "",
          "type": "uint256"
        }
      ],
      "name": "orders",
      "outputs": [
        {
          "name": "pcode",
          "type": "string"
        },
        {
          "name": "rcode",
          "type": "string"
        },
        {
          "name": "ocode",
          "type": "string"
        },
        {
          "name": "ucode",
          "type": "string"
        }
      ],
      "payable": false,
      "stateMutability": "view",
      "type": "function"
    },
    {
      "constant": false,
      "inputs": [
        {
          "name": "_code",
          "type": "string"
        },
        {
          "name": "_name",
          "type": "string"
        },
        {
          "name": "_description",
          "type": "string"
        },
        {
          "name": "_manufactuerName",
          "type": "string"
        },
        {
          "name": "_price",
          "type": "uint256"
        }
      ],
      "name": "addProduct",
      "outputs": [
        {
          "name": "",
          "type": "uint256"
        }
      ],
      "payable": true,
      "stateMutability": "payable",
      "type": "function"
    },
    {
      "constant": false,
      "inputs": [
        {
          "name": "_code",
          "type": "string"
        },
        {
          "name": "_name",
          "type": "string"
        },
        {
          "name": "_email",
          "type": "string"
        },
        {
          "name": "_location",
          "type": "string"
        },
        {
          "name": "_password",
          "type": "string"
        }
      ],
      "name": "addRetailer",
      "outputs": [
        {
          "name": "",
          "type": "uint256"
        }
      ],
      "payable": true,
      "stateMutability": "payable",
      "type": "function"
    },
    {
      "constant": false,
      "inputs": [
        {
          "name": "_pcode",
          "type": "string"
        },
        {
          "name": "_rcode",
          "type": "string"
        },
        {
          "name": "_rname",
          "type": "string"
        },
        {
          "name": "_rpassword",
          "type": "string"
        },
        {
          "name": "_ocode",
          "type": "string"
        },
        {
          "name": "_ucode",
          "type": "string"
        }
      ],
      "name": "addOrder",
      "outputs": [
        {
          "name": "",
          "type": "uint256"
        }
      ],
      "payable": true,
      "stateMutability": "payable",
      "type": "function"
    },
    {
      "constant": true,
      "inputs": [
        {
          "name": "_pcode",
          "type": "string"
        },
        {
          "name": "_rcode",
          "type": "string"
        },
        {
          "name": "_rname",
          "type": "string"
        },
        {
          "name": "_rpassword",
          "type": "string"
        },
        {
          "name": "_ocode",
          "type": "string"
        },
        {
          "name": "_ucode",
          "type": "string"
        }
      ],
      "name": "verifyOrder",
      "outputs": [
        {
          "name": "",
          "type": "uint256"
        }
      ],
      "payable": false,
      "stateMutability": "view",
      "type": "function"
    }
  ],
  "bytecode": "0x6060604052341561000f57600080fd5b611dc38061001e6000396000f3006060604052600436106100a4576000357c0100000000000000000000000000000000000000000000000000000000900463ffffffff1680631ab2cf21146100a95780631dca0ee8146100d257806325dfbfba146100fb5780633b20a71d14610126578063619cce0f1461015c5780637acc0b2014610187578063897ec7df146101c15780639d128119146101fb578063a85c38ef14610224578063bc6aed5b1461025d575b600080fd5b34156100b457600080fd5b6100bc610288565b6040516100c99190611ca3565b60405180910390f35b34156100dd57600080fd5b6100e561028e565b6040516100f29190611ca3565b60405180910390f35b610110600461010b903690611a18565b610294565b60405161011d9190611ca3565b60405180910390f35b341561013157600080fd5b61014660046101419036906118ff565b61038c565b6040516101539190611ca3565b60405180910390f35b610171600461016c903690611810565b61070c565b60405161017e9190611ca3565b60405180910390f35b341561019257600080fd5b6101a760046101a2903690611aef565b610817565b6040516101b8959493929190611c34565b60405180910390f35b34156101cc57600080fd5b6101e160046101dc903690611aef565b610abc565b6040516101f2959493929190611bbe565b60405180910390f35b341561020657600080fd5b61020e610df9565b60405161021b9190611ca3565b60405180910390f35b341561022f57600080fd5b610244600461023f903690611aef565b610dff565b6040516102549493929190611b5d565b60405180910390f35b610272600461026d9036906118ff565b61109e565b60405161027f9190611ca3565b60405180910390f35b60005481565b60025481565b600061029e611616565b6000808154809291906001019190505550868160000181905250858160200181905250848160400181905250838160600181905250828160800181815250508060036000548154811015156102ef57fe5b9060005260206000209060050201600082015181600001908051906020019061031992919061165e565b50602082015181600101908051906020019061033692919061165e565b50604082015181600201908051906020019061035392919061165e565b50606082015181600301908051906020019061037092919061165e565b5060808201518160040155905050600191505095945050505050565b600080610398886111af565b80156103ab57506103aa8787876112ac565b5b156106fc57600090505b6005805490508110156106fb576104846005828154811015156103d457fe5b90600052602060002090600402016002018054600181600116156101000203166002900480601f0160208091040260200160405190810160405280929190818152602001828054600181600116156101000203166002900480156104795780601f1061044e57610100808354040283529160200191610479565b820191906000526020600020905b81548152906001019060200180831161045c57829003601f168201915b50505050508561153d565b156106ee5761054b60058281548110151561049b57fe5b90600052602060002090600402016000018054600181600116156101000203166002900480601f0160208091040260200160405190810160405280929190818152602001828054600181600116156101000203166002900480156105405780601f1061051557610100808354040283529160200191610540565b820191906000526020600020905b81548152906001019060200180831161052357829003601f168201915b50505050508961153d565b8015610615575061061460058281548110151561056457fe5b90600052602060002090600402016003018054600181600116156101000203166002900480601f0160208091040260200160405190810160405280929190818152602001828054600181600116156101000203166002900480156106095780601f106105de57610100808354040283529160200191610609565b820191906000526020600020905b8154815290600101906020018083116105ec57829003601f168201915b50505050508461153d565b5b80156106df57506106de60058281548110151561062e57fe5b90600052602060002090600402016001018054600181600116156101000203166002900480601f0160208091040260200160405190810160405280929190818152602001828054600181600116156101000203166002900480156106d35780601f106106a8576101008083540402835291602001916106d3565b820191906000526020600020905b8154815290600101906020018083116106b657829003601f168201915b50505050508861153d565b5b156106ed5760019150610701565b5b80806001019150506103b5565b5b600091505b509695505050505050565b60006107166116de565b60016000815480929190600101919050555086816000018190525085816020018190525084816040018190525083816060018190525082816080018190525080600460015481548110151561076757fe5b9060005260206000209060050201600082015181600001908051906020019061079192919061165e565b5060208201518160010190805190602001906107ae92919061165e565b5060408201518160020190805190602001906107cb92919061165e565b5060608201518160030190805190602001906107e892919061165e565b50608082015181600401908051906020019061080592919061165e565b50905050600191505095945050505050565b60038181548110151561082657fe5b9060005260206000209060050201600091509050806000018054600181600116156101000203166002900480601f0160208091040260200160405190810160405280929190818152602001828054600181600116156101000203166002900480156108d25780601f106108a7576101008083540402835291602001916108d2565b820191906000526020600020905b8154815290600101906020018083116108b557829003601f168201915b505050505090806001018054600181600116156101000203166002900480601f0160208091040260200160405190810160405280929190818152602001828054600181600116156101000203166002900480156109705780601f1061094557610100808354040283529160200191610970565b820191906000526020600020905b81548152906001019060200180831161095357829003601f168201915b505050505090806002018054600181600116156101000203166002900480601f016020809104026020016040519081016040528092919081815260200182805460018160011615610100020316600290048015610a0e5780601f106109e357610100808354040283529160200191610a0e565b820191906000526020600020905b8154815290600101906020018083116109f157829003601f168201915b505050505090806003018054600181600116156101000203166002900480601f016020809104026020016040519081016040528092919081815260200182805460018160011615610100020316600290048015610aac5780601f10610a8157610100808354040283529160200191610aac565b820191906000526020600020905b815481529060010190602001808311610a8f57829003601f168201915b5050505050908060040154905085565b600481815481101515610acb57fe5b9060005260206000209060050201600091509050806000018054600181600116156101000203166002900480601f016020809104026020016040519081016040528092919081815260200182805460018160011615610100020316600290048015610b775780601f10610b4c57610100808354040283529160200191610b77565b820191906000526020600020905b815481529060010190602001808311610b5a57829003601f168201915b505050505090806001018054600181600116156101000203166002900480601f016020809104026020016040519081016040528092919081815260200182805460018160011615610100020316600290048015610c155780601f10610bea57610100808354040283529160200191610c15565b820191906000526020600020905b815481529060010190602001808311610bf857829003601f168201915b505050505090806002018054600181600116156101000203166002900480601f016020809104026020016040519081016040528092919081815260200182805460018160011615610100020316600290048015610cb35780601f10610c8857610100808354040283529160200191610cb3565b820191906000526020600020905b815481529060010190602001808311610c9657829003601f168201915b505050505090806003018054600181600116156101000203166002900480601f016020809104026020016040519081016040528092919081815260200182805460018160011615610100020316600290048015610d515780601f10610d2657610100808354040283529160200191610d51565b820191906000526020600020905b815481529060010190602001808311610d3457829003601f168201915b505050505090806004018054600181600116156101000203166002900480601f016020809104026020016040519081016040528092919081815260200182805460018160011615610100020316600290048015610def5780601f10610dc457610100808354040283529160200191610def565b820191906000526020600020905b815481529060010190602001808311610dd257829003601f168201915b5050505050905085565b60015481565b600581815481101515610e0e57fe5b9060005260206000209060040201600091509050806000018054600181600116156101000203166002900480601f016020809104026020016040519081016040528092919081815260200182805460018160011615610100020316600290048015610eba5780601f10610e8f57610100808354040283529160200191610eba565b820191906000526020600020905b815481529060010190602001808311610e9d57829003601f168201915b505050505090806001018054600181600116156101000203166002900480601f016020809104026020016040519081016040528092919081815260200182805460018160011615610100020316600290048015610f585780601f10610f2d57610100808354040283529160200191610f58565b820191906000526020600020905b815481529060010190602001808311610f3b57829003601f168201915b505050505090806002018054600181600116156101000203166002900480601f016020809104026020016040519081016040528092919081815260200182805460018160011615610100020316600290048015610ff65780601f10610fcb57610100808354040283529160200191610ff6565b820191906000526020600020905b815481529060010190602001808311610fd957829003601f168201915b505050505090806003018054600181600116156101000203166002900480601f0160208091040260200160405190810160405280929190818152602001828054600181600116156101000203166002900480156110945780601f1061106957610100808354040283529160200191611094565b820191906000526020600020905b81548152906001019060200180831161107757829003601f168201915b5050505050905084565b60006110a861172c565b6110b1886111af565b80156110c457506110c38787876112ac565b5b1561119f5760026000815480929190600101919050555087816000018190525086816020018190525083816040018190525082816060018190525080600560025481548110151561111157fe5b9060005260206000209060040201600082015181600001908051906020019061113b92919061165e565b50602082015181600101908051906020019061115892919061165e565b50604082015181600201908051906020019061117592919061165e565b50606082015181600301908051906020019061119292919061165e565b50905050600191506111a4565b600091505b509695505050505050565b600080600090505b6003805490508110156112a1576112866003828154811015156111d657fe5b90600052602060002090600502016000018054600181600116156101000203166002900480601f01602080910402602001604051908101604052809291908181526020018280546001816001161561010002031660029004801561127b5780601f106112505761010080835404028352916020019161127b565b820191906000526020600020905b81548152906001019060200180831161125e57829003601f168201915b50505050508461153d565b1561129457600191506112a6565b80806001019150506111b7565b600091505b50919050565b600080600090505b600480549050811015611530576113836004828154811015156112d357fe5b90600052602060002090600502016000018054600181600116156101000203166002900480601f0160208091040260200160405190810160405280929190818152602001828054600181600116156101000203166002900480156113785780601f1061134d57610100808354040283529160200191611378565b820191906000526020600020905b81548152906001019060200180831161135b57829003601f168201915b50505050508661153d565b156115235761144a60048281548110151561139a57fe5b90600052602060002090600502016004018054600181600116156101000203166002900480601f01602080910402602001604051908101604052809291908181526020018280546001816001161561010002031660029004801561143f5780601f106114145761010080835404028352916020019161143f565b820191906000526020600020905b81548152906001019060200180831161142257829003601f168201915b50505050508461153d565b8015611514575061151360048281548110151561146357fe5b90600052602060002090600502016001018054600181600116156101000203166002900480601f0160208091040260200160405190810160405280929190818152602001828054600181600116156101000203166002900480156115085780601f106114dd57610100808354040283529160200191611508565b820191906000526020600020905b8154815290600101906020018083116114eb57829003601f168201915b50505050508561153d565b5b156115225760019150611535565b5b80806001019150506112b4565b600091505b509392505050565b6000816040518082805190602001908083835b6020831015156115755780518252602082019150602081019050602083039250611550565b6001836020036101000a038019825116818451168082178552505050505050905001915050604051809103902060001916836040518082805190602001908083835b6020831015156115dc57805182526020820191506020810190506020830392506115b7565b6001836020036101000a03801982511681845116808217855250505050505090500191505060405180910390206000191614905092915050565b60a06040519081016040528061162a61176d565b815260200161163761176d565b815260200161164461176d565b815260200161165161176d565b8152602001600081525090565b828054600181600116156101000203166002900490600052602060002090601f016020900481019282601f1061169f57805160ff19168380011785556116cd565b828001600101855582156116cd579182015b828111156116cc5782518255916020019190600101906116b1565b5b5090506116da9190611781565b5090565b60a0604051908101604052806116f261176d565b81526020016116ff61176d565b815260200161170c61176d565b815260200161171961176d565b815260200161172661176d565b81525090565b60806040519081016040528061174061176d565b815260200161174d61176d565b815260200161175a61176d565b815260200161176761176d565b81525090565b602060405190810160405280600081525090565b6117a391905b8082111561179f576000816000905550600101611787565b5090565b90565b600082601f83011215156117b957600080fd5b81356117cc6117c782611ceb565b611cbe565b915080825260208301602083018583830111156117e857600080fd5b6117f3838284611d36565b50505092915050565b60006118088235611d2c565b905092915050565b600080600080600060a0868803121561182857600080fd5b600086013567ffffffffffffffff81111561184257600080fd5b61184e888289016117a6565b955050602086013567ffffffffffffffff81111561186b57600080fd5b611877888289016117a6565b945050604086013567ffffffffffffffff81111561189457600080fd5b6118a0888289016117a6565b935050606086013567ffffffffffffffff8111156118bd57600080fd5b6118c9888289016117a6565b925050608086013567ffffffffffffffff8111156118e657600080fd5b6118f2888289016117a6565b9150509295509295909350565b60008060008060008060c0878903121561191857600080fd5b600087013567ffffffffffffffff81111561193257600080fd5b61193e89828a016117a6565b965050602087013567ffffffffffffffff81111561195b57600080fd5b61196789828a016117a6565b955050604087013567ffffffffffffffff81111561198457600080fd5b61199089828a016117a6565b945050606087013567ffffffffffffffff8111156119ad57600080fd5b6119b989828a016117a6565b935050608087013567ffffffffffffffff8111156119d657600080fd5b6119e289828a016117a6565b92505060a087013567ffffffffffffffff8111156119ff57600080fd5b611a0b89828a016117a6565b9150509295509295509295565b600080600080600060a08688031215611a3057600080fd5b600086013567ffffffffffffffff811115611a4a57600080fd5b611a56888289016117a6565b955050602086013567ffffffffffffffff811115611a7357600080fd5b611a7f888289016117a6565b945050604086013567ffffffffffffffff811115611a9c57600080fd5b611aa8888289016117a6565b935050606086013567ffffffffffffffff811115611ac557600080fd5b611ad1888289016117a6565b9250506080611ae2888289016117fc565b9150509295509295909350565b600060208284031215611b0157600080fd5b6000611b0f848285016117fc565b91505092915050565b6000611b2382611d17565b808452611b37816020860160208601611d45565b611b4081611d78565b602085010191505092915050565b611b5781611d22565b82525050565b60006080820190508181036000830152611b778187611b18565b90508181036020830152611b8b8186611b18565b90508181036040830152611b9f8185611b18565b90508181036060830152611bb38184611b18565b905095945050505050565b600060a0820190508181036000830152611bd88188611b18565b90508181036020830152611bec8187611b18565b90508181036040830152611c008186611b18565b90508181036060830152611c148185611b18565b90508181036080830152611c288184611b18565b90509695505050505050565b600060a0820190508181036000830152611c4e8188611b18565b90508181036020830152611c628187611b18565b90508181036040830152611c768186611b18565b90508181036060830152611c8a8185611b18565b9050611c996080830184611b4e565b9695505050505050565b6000602082019050611cb86000830184611b4e565b92915050565b6000604051905081810181811067ffffffffffffffff82111715611ce157600080fd5b8060405250919050565b600067ffffffffffffffff821115611d0257600080fd5b601f19601f8301169050602081019050919050565b600081519050919050565b6000819050919050565b6000819050919050565b82818337600083830152505050565b60005b83811015611d63578082015181840152602081019050611d48565b83811115611d72576000848401525b50505050565b6000601f19601f83011690509190505600a265627a7a72305820fa0f2bab6193e8d0e1d8287a9f05fe14c09483ff4d3eddb1408aca412bcbb5b66c6578706572696d656e74616cf50037",
  "source": "pragma solidity ^0.4.21;\npragma experimental ABIEncoderV2;\n\n\n\ncontract Tracetex {\n    uint public pcount;\n    uint public rcount;\n    uint public ocount;\n\n        // A struct which helps create a new product\n        struct productObj {\n        string code;\n        string name;\n        string description;\n        string manufactuerName;\n        uint price;\n    }\n        // A struct which helps create a new retailer\n    struct retailersObj {\n        string code;\n        string name;\n        string email;\n        string location;\n        string password;\n    }\n\n    // A struct which helps create a new customer\n    struct orderObj {\n        string pcode;\n        string rcode;\n        string ocode;\n        string ucode;\n    }\n\n    struct retailerObj {\n        string name;\n        string location;\n    }\n\n    productObj [] public  products;\n    retailersObj [] public  retailers;\n    orderObj [] public  orders;\n\n\n\n\n    // Function to create a new code for the product\n    function addProduct(string _code, string _name, string _description, string _manufactuerName, uint _price) public payable returns (uint) {\n        productObj memory newProd;\n        pcount++;\n        newProd.code = _code;\n        newProd.name = _name;\n        newProd.description = _description;\n        newProd.manufactuerName = _manufactuerName;\n        newProd.price =_price;\n        products[pcount]= newProd;\n        return 1;\n    }\n\n        // Function to create a new code for the product\n    function addRetailer(string _code, string _name, string _email, string _location, string _password) public payable returns (uint) {\n        retailersObj memory newRet;\n        rcount++;\n        newRet.code = _code;\n        newRet.name = _name;\n        newRet.email = _email;\n        newRet.location = _location;\n        newRet.password =_password;\n        retailers[rcount]= newRet;\n        return 1;\n    }\n\n    function checkProduct(string _code) internal returns (bool) {\n\n        // Iterate over the products array\n        for (uint i = 0; i < products.length; i++) {\n            if (compareStrings(products[i].code,_code)){\n                return true;\n            }\n        }\n            return false;\n    }\n\n    function checkRetailer(string _code,string _name,string _password) internal returns (bool) {\n\n        // Iterate over the retailers array\n        for (uint i = 0; i < retailers.length; i++) {\n            if (compareStrings(retailers[i].code,_code)){\n                        if (compareStrings(retailers[i].password,_password) && compareStrings(retailers[i].name,_name)){\n                        return true;\n                        }\n            }\n        }\n            return false;\n    }\n\n    function addOrder(string _pcode, string _rcode,string _rname, string _rpassword, string _ocode, string _ucode) public payable returns (uint) {\n       \n       if(checkProduct(_pcode) && checkRetailer(_rcode,_rname,_rpassword)){\n        orderObj memory newOrd;\n        ocount++;\n        newOrd.pcode = _pcode;\n        newOrd.rcode = _rcode;\n        newOrd.ocode = _ocode;\n        newOrd.ucode = _ucode;\n        orders[ocount]= newOrd;\n        return 1;\n      }\n       return 0;\n    }\n\n    function verifyOrder(string _pcode, string _rcode,string _rname, string _rpassword, string _ocode, string _ucode) public view returns (uint) {\n\n       if(checkProduct(_pcode) && checkRetailer(_rcode,_rname,_rpassword)){\n        for (uint i = 0; i < orders.length; i++) {\n            if (compareStrings(orders[i].ocode,_ocode)){\n                        if (compareStrings(orders[i].pcode,_pcode) && compareStrings(orders[i].ucode,_ucode)&& compareStrings(orders[i].rcode,_rcode)){\n                        return 1;\n                        }\n            }\n        }\n      }\n       return 0;\n    }\n\n\n    // Cannot directly compare strings in Solidity\n    // This function hashes the 2 strings and then compares the 2 hashes\n    function compareStrings(string a, string b) internal returns (bool) {\n    \treturn keccak256(a) == keccak256(b);\n    }\n\n    // Function to delete an element from an array\n    function remove(uint index, string[] storage array) internal returns(bool) {\n        if (index >= array.length)\n            return false;\n\n        for (uint i = index; i < array.length-1; i++) {\n            array[i] = array[i+1];\n        }\n        delete array[array.length-1];\n        array.length--;\n        return true;\n    }\n\n    // Function to convert string to bytes32\n    function stringToBytes32(string memory source) internal returns (bytes32 result) {\n        bytes memory tempEmptyStringTest = bytes(source);\n        if (tempEmptyStringTest.length == 0) {\n            return 0x0;\n        }\n        assembly {\n            result := mload(add(source, 32))\n        }\n    }\n}\n",
  "sourcePath": "C:\\Users\\tharu\\Documents\\Tracetex\\contracts\\Tracetex.sol",
  "compiler": {
    "name": "solc",
    "version": "0.4.21+commit.dfe3193c.Emscripten.clang"
  },
  "schemaVersion": "3.4.16",
  "updatedAt": "2023-12-04T01:36:26.253Z",
  "networkType": "ethereum",
  "devdoc": {
    "methods": {}
  },
  "userdoc": {
    "methods": {}
  }
}